{
  "contractName": "TripCash",
  "abi": [
    {
      "constant": true,
      "inputs": [],
      "name": "name",
      "outputs": [
        {
          "name": "",
          "type": "string"
        }
      ],
      "payable": false,
      "stateMutability": "view",
      "type": "function"
    },
    {
      "constant": true,
      "inputs": [],
      "name": "totalSupply",
      "outputs": [
        {
          "name": "",
          "type": "uint256"
        }
      ],
      "payable": false,
      "stateMutability": "view",
      "type": "function"
    },
    {
      "constant": true,
      "inputs": [],
      "name": "decimals",
      "outputs": [
        {
          "name": "",
          "type": "uint8"
        }
      ],
      "payable": false,
      "stateMutability": "view",
      "type": "function"
    },
    {
      "constant": true,
      "inputs": [
        {
          "name": "_owner",
          "type": "address"
        }
      ],
      "name": "balanceOf",
      "outputs": [
        {
          "name": "balance",
          "type": "uint256"
        }
      ],
      "payable": false,
      "stateMutability": "view",
      "type": "function"
    },
    {
      "constant": true,
      "inputs": [],
      "name": "symbol",
      "outputs": [
        {
          "name": "",
          "type": "string"
        }
      ],
      "payable": false,
      "stateMutability": "view",
      "type": "function"
    },
    {
      "constant": false,
      "inputs": [
        {
          "name": "_to",
          "type": "address"
        },
        {
          "name": "_value",
          "type": "uint256"
        }
      ],
      "name": "transfer",
      "outputs": [
        {
          "name": "",
          "type": "bool"
        }
      ],
      "payable": false,
      "stateMutability": "nonpayable",
      "type": "function"
    },
    {
      "anonymous": false,
      "inputs": [
        {
          "indexed": true,
          "name": "from",
          "type": "address"
        },
        {
          "indexed": true,
          "name": "to",
          "type": "address"
        },
        {
          "indexed": false,
          "name": "value",
          "type": "uint256"
        }
      ],
      "name": "Transfer",
      "type": "event"
    }
  ],
  "bytecode": "0x60606040526040805190810160405280600881526020017f54524950434153480000000000000000000000000000000000000000000000008152506002908051906020019061004f9291906100c8565b506040805190810160405280600381526020017f54434800000000000000000000000000000000000000000000000000000000008152506003908051906020019061009b9291906100c8565b506012600460006101000a81548160ff021916908360ff16021790555034156100c357600080fd5b61016d565b828054600181600116156101000203166002900490600052602060002090601f016020900481019282601f1061010957805160ff1916838001178555610137565b82800160010185558215610137579182015b8281111561013657825182559160200191906001019061011b565b5b5090506101449190610148565b5090565b61016a91905b8082111561016657600081600090555060010161014e565b5090565b90565b6106bd8061017c6000396000f300606060405260043610610078576000357c0100000000000000000000000000000000000000000000000000000000900463ffffffff16806306fdde031461007d57806318160ddd1461010b578063313ce5671461013457806370a082311461016357806395d89b41146101b0578063a9059cbb1461023e575b600080fd5b341561008857600080fd5b610090610298565b6040518080602001828103825283818151815260200191508051906020019080838360005b838110156100d05780820151818401526020810190506100b5565b50505050905090810190601f1680156100fd5780820380516001836020036101000a031916815260200191505b509250505060405180910390f35b341561011657600080fd5b61011e610336565b6040518082815260200191505060405180910390f35b341561013f57600080fd5b61014761033c565b604051808260ff1660ff16815260200191505060405180910390f35b341561016e57600080fd5b61019a600480803573ffffffffffffffffffffffffffffffffffffffff1690602001909190505061034f565b6040518082815260200191505060405180910390f35b34156101bb57600080fd5b6101c3610398565b6040518080602001828103825283818151815260200191508051906020019080838360005b838110156102035780820151818401526020810190506101e8565b50505050905090810190601f1680156102305780820380516001836020036101000a031916815260200191505b509250505060405180910390f35b341561024957600080fd5b61027e600480803573ffffffffffffffffffffffffffffffffffffffff16906020019091908035906020019091905050610436565b604051808215151515815260200191505060405180910390f35b60028054600181600116156101000203166002900480601f01602080910402602001604051908101604052809291908181526020018280546001816001161561010002031660029004801561032e5780601f106103035761010080835404028352916020019161032e565b820191906000526020600020905b81548152906001019060200180831161031157829003601f168201915b505050505081565b60005481565b600460009054906101000a900460ff1681565b6000600160008373ffffffffffffffffffffffffffffffffffffffff1673ffffffffffffffffffffffffffffffffffffffff168152602001908152602001600020549050919050565b60038054600181600116156101000203166002900480601f01602080910402602001604051908101604052809291908181526020018280546001816001161561010002031660029004801561042e5780601f106104035761010080835404028352916020019161042e565b820191906000526020600020905b81548152906001019060200180831161041157829003601f168201915b505050505081565b60008073ffffffffffffffffffffffffffffffffffffffff168373ffffffffffffffffffffffffffffffffffffffff161415151561047357600080fd5b600160003373ffffffffffffffffffffffffffffffffffffffff1673ffffffffffffffffffffffffffffffffffffffff1681526020019081526020016000205482111515156104c157600080fd5b61051382600160003373ffffffffffffffffffffffffffffffffffffffff1673ffffffffffffffffffffffffffffffffffffffff1681526020019081526020016000205461065a90919063ffffffff16565b600160003373ffffffffffffffffffffffffffffffffffffffff1673ffffffffffffffffffffffffffffffffffffffff168152602001908152602001600020819055506105a882600160008673ffffffffffffffffffffffffffffffffffffffff1673ffffffffffffffffffffffffffffffffffffffff1681526020019081526020016000205461067390919063ffffffff16565b600160008573ffffffffffffffffffffffffffffffffffffffff1673ffffffffffffffffffffffffffffffffffffffff168152602001908152602001600020819055508273ffffffffffffffffffffffffffffffffffffffff163373ffffffffffffffffffffffffffffffffffffffff167fddf252ad1be2c89b69c2b068fc378daa952ba7f163c4a11628f55a4df523b3ef846040518082815260200191505060405180910390a36001905092915050565b600082821115151561066857fe5b818303905092915050565b600080828401905083811015151561068757fe5b80915050929150505600a165627a7a723058209844f8e9c985cb18dd78814faac3e0db659407db33131a7688adadb5036c7b630029",
  "source": "pragma solidity ^0.4.13;\r\n\r\nimport 'zeppelin-solidity/contracts/token/BasicToken.sol';\r\n\r\ncontract TripCash is BasicToken {\r\n  string public name = \"TRIPCASH\";\r\n  string public symbol = \"TCH\";\r\n  uint8 public decimals = 18;\r\n}",
  "sourcePath": "C:\\Users\\hpaxt\\my-ico\\contracts\\TripCash.sol",
  "compiler": {
    "name": "solc",
    "version": "0.4.18+commit.9cf6e910.Emscripten.clang"
  },
  "schemaVersion": "1.0.1",
  "updatedAt": "2018-01-30T10:46:58.213Z"
}